{
  "_format": "hh-sol-artifact-1",
  "contractName": "BondingCurveToken",
  "sourceName": "contracts/BondingCurveToken.sol",
  "abi": [
    {
      "inputs": [],
      "stateMutability": "nonpayable",
      "type": "constructor"
    },
    {
      "inputs": [
        {
          "internalType": "address",
          "name": "spender",
          "type": "address"
        },
        {
          "internalType": "uint256",
          "name": "allowance",
          "type": "uint256"
        },
        {
          "internalType": "uint256",
          "name": "needed",
          "type": "uint256"
        }
      ],
      "name": "ERC20InsufficientAllowance",
      "type": "error"
    },
    {
      "inputs": [
        {
          "internalType": "address",
          "name": "sender",
          "type": "address"
        },
        {
          "internalType": "uint256",
          "name": "balance",
          "type": "uint256"
        },
        {
          "internalType": "uint256",
          "name": "needed",
          "type": "uint256"
        }
      ],
      "name": "ERC20InsufficientBalance",
      "type": "error"
    },
    {
      "inputs": [
        {
          "internalType": "address",
          "name": "approver",
          "type": "address"
        }
      ],
      "name": "ERC20InvalidApprover",
      "type": "error"
    },
    {
      "inputs": [
        {
          "internalType": "address",
          "name": "receiver",
          "type": "address"
        }
      ],
      "name": "ERC20InvalidReceiver",
      "type": "error"
    },
    {
      "inputs": [
        {
          "internalType": "address",
          "name": "sender",
          "type": "address"
        }
      ],
      "name": "ERC20InvalidSender",
      "type": "error"
    },
    {
      "inputs": [
        {
          "internalType": "address",
          "name": "spender",
          "type": "address"
        }
      ],
      "name": "ERC20InvalidSpender",
      "type": "error"
    },
    {
      "inputs": [
        {
          "internalType": "address",
          "name": "owner",
          "type": "address"
        }
      ],
      "name": "OwnableInvalidOwner",
      "type": "error"
    },
    {
      "inputs": [
        {
          "internalType": "address",
          "name": "account",
          "type": "address"
        }
      ],
      "name": "OwnableUnauthorizedAccount",
      "type": "error"
    },
    {
      "anonymous": false,
      "inputs": [
        {
          "indexed": true,
          "internalType": "address",
          "name": "owner",
          "type": "address"
        },
        {
          "indexed": true,
          "internalType": "address",
          "name": "spender",
          "type": "address"
        },
        {
          "indexed": false,
          "internalType": "uint256",
          "name": "value",
          "type": "uint256"
        }
      ],
      "name": "Approval",
      "type": "event"
    },
    {
      "anonymous": false,
      "inputs": [
        {
          "indexed": true,
          "internalType": "address",
          "name": "previousOwner",
          "type": "address"
        },
        {
          "indexed": true,
          "internalType": "address",
          "name": "newOwner",
          "type": "address"
        }
      ],
      "name": "OwnershipTransferred",
      "type": "event"
    },
    {
      "anonymous": false,
      "inputs": [
        {
          "indexed": true,
          "internalType": "address",
          "name": "buyer",
          "type": "address"
        },
        {
          "indexed": false,
          "internalType": "uint256",
          "name": "amount",
          "type": "uint256"
        },
        {
          "indexed": false,
          "internalType": "uint256",
          "name": "cost",
          "type": "uint256"
        }
      ],
      "name": "TokensBought",
      "type": "event"
    },
    {
      "anonymous": false,
      "inputs": [
        {
          "indexed": true,
          "internalType": "address",
          "name": "seller",
          "type": "address"
        },
        {
          "indexed": false,
          "internalType": "uint256",
          "name": "amount",
          "type": "uint256"
        },
        {
          "indexed": false,
          "internalType": "uint256",
          "name": "cost",
          "type": "uint256"
        }
      ],
      "name": "TokensSold",
      "type": "event"
    },
    {
      "anonymous": false,
      "inputs": [
        {
          "indexed": true,
          "internalType": "address",
          "name": "from",
          "type": "address"
        },
        {
          "indexed": true,
          "internalType": "address",
          "name": "to",
          "type": "address"
        },
        {
          "indexed": false,
          "internalType": "uint256",
          "name": "value",
          "type": "uint256"
        }
      ],
      "name": "Transfer",
      "type": "event"
    },
    {
      "inputs": [],
      "name": "BASE_PRICE",
      "outputs": [
        {
          "internalType": "uint256",
          "name": "",
          "type": "uint256"
        }
      ],
      "stateMutability": "view",
      "type": "function"
    },
    {
      "inputs": [],
      "name": "FACTOR_DEN",
      "outputs": [
        {
          "internalType": "uint256",
          "name": "",
          "type": "uint256"
        }
      ],
      "stateMutability": "view",
      "type": "function"
    },
    {
      "inputs": [],
      "name": "FACTOR_NUM",
      "outputs": [
        {
          "internalType": "uint256",
          "name": "",
          "type": "uint256"
        }
      ],
      "stateMutability": "view",
      "type": "function"
    },
    {
      "inputs": [],
      "name": "MAX_SUPPLY",
      "outputs": [
        {
          "internalType": "uint256",
          "name": "",
          "type": "uint256"
        }
      ],
      "stateMutability": "view",
      "type": "function"
    },
    {
      "inputs": [
        {
          "internalType": "address",
          "name": "owner",
          "type": "address"
        },
        {
          "internalType": "address",
          "name": "spender",
          "type": "address"
        }
      ],
      "name": "allowance",
      "outputs": [
        {
          "internalType": "uint256",
          "name": "",
          "type": "uint256"
        }
      ],
      "stateMutability": "view",
      "type": "function"
    },
    {
      "inputs": [
        {
          "internalType": "address",
          "name": "spender",
          "type": "address"
        },
        {
          "internalType": "uint256",
          "name": "value",
          "type": "uint256"
        }
      ],
      "name": "approve",
      "outputs": [
        {
          "internalType": "bool",
          "name": "",
          "type": "bool"
        }
      ],
      "stateMutability": "nonpayable",
      "type": "function"
    },
    {
      "inputs": [
        {
          "internalType": "address",
          "name": "account",
          "type": "address"
        }
      ],
      "name": "balanceOf",
      "outputs": [
        {
          "internalType": "uint256",
          "name": "",
          "type": "uint256"
        }
      ],
      "stateMutability": "view",
      "type": "function"
    },
    {
      "inputs": [
        {
          "internalType": "uint256",
          "name": "amount",
          "type": "uint256"
        }
      ],
      "name": "buyTokens",
      "outputs": [],
      "stateMutability": "payable",
      "type": "function"
    },
    {
      "inputs": [],
      "name": "currentPrice",
      "outputs": [
        {
          "internalType": "uint256",
          "name": "",
          "type": "uint256"
        }
      ],
      "stateMutability": "view",
      "type": "function"
    },
    {
      "inputs": [],
      "name": "decimals",
      "outputs": [
        {
          "internalType": "uint8",
          "name": "",
          "type": "uint8"
        }
      ],
      "stateMutability": "view",
      "type": "function"
    },
    {
      "inputs": [],
      "name": "name",
      "outputs": [
        {
          "internalType": "string",
          "name": "",
          "type": "string"
        }
      ],
      "stateMutability": "view",
      "type": "function"
    },
    {
      "inputs": [],
      "name": "owner",
      "outputs": [
        {
          "internalType": "address",
          "name": "",
          "type": "address"
        }
      ],
      "stateMutability": "view",
      "type": "function"
    },
    {
      "inputs": [],
      "name": "renounceOwnership",
      "outputs": [],
      "stateMutability": "nonpayable",
      "type": "function"
    },
    {
      "inputs": [
        {
          "internalType": "uint256",
          "name": "amount",
          "type": "uint256"
        }
      ],
      "name": "sellTokens",
      "outputs": [],
      "stateMutability": "nonpayable",
      "type": "function"
    },
    {
      "inputs": [],
      "name": "symbol",
      "outputs": [
        {
          "internalType": "string",
          "name": "",
          "type": "string"
        }
      ],
      "stateMutability": "view",
      "type": "function"
    },
    {
      "inputs": [],
      "name": "totalSupply",
      "outputs": [
        {
          "internalType": "uint256",
          "name": "",
          "type": "uint256"
        }
      ],
      "stateMutability": "view",
      "type": "function"
    },
    {
      "inputs": [
        {
          "internalType": "address",
          "name": "to",
          "type": "address"
        },
        {
          "internalType": "uint256",
          "name": "value",
          "type": "uint256"
        }
      ],
      "name": "transfer",
      "outputs": [
        {
          "internalType": "bool",
          "name": "",
          "type": "bool"
        }
      ],
      "stateMutability": "nonpayable",
      "type": "function"
    },
    {
      "inputs": [
        {
          "internalType": "address",
          "name": "from",
          "type": "address"
        },
        {
          "internalType": "address",
          "name": "to",
          "type": "address"
        },
        {
          "internalType": "uint256",
          "name": "value",
          "type": "uint256"
        }
      ],
      "name": "transferFrom",
      "outputs": [
        {
          "internalType": "bool",
          "name": "",
          "type": "bool"
        }
      ],
      "stateMutability": "nonpayable",
      "type": "function"
    },
    {
      "inputs": [
        {
          "internalType": "address",
          "name": "newOwner",
          "type": "address"
        }
      ],
      "name": "transferOwnership",
      "outputs": [],
      "stateMutability": "nonpayable",
      "type": "function"
    },
    {
      "inputs": [
        {
          "internalType": "uint256",
          "name": "amount",
          "type": "uint256"
        }
      ],
      "name": "withdraw",
      "outputs": [],
      "stateMutability": "nonpayable",
      "type": "function"
    }
  ],
  "bytecode": "0x608060405234801561001057600080fd5b50336040518060400160405280601381526020017f426f6e64696e6720437572766520546f6b656e000000000000000000000000008152506040518060400160405280600381526020017f4243540000000000000000000000000000000000000000000000000000000000815250816003908161008d919061044b565b50806004908161009d919061044b565b505050600073ffffffffffffffffffffffffffffffffffffffff168173ffffffffffffffffffffffffffffffffffffffff16036101125760006040517f1e4fbdf7000000000000000000000000000000000000000000000000000000008152600401610109919061055e565b60405180910390fd5b6101218161013560201b60201c565b50662386f26fc10000600681905550610579565b6000600560009054906101000a900473ffffffffffffffffffffffffffffffffffffffff16905081600560006101000a81548173ffffffffffffffffffffffffffffffffffffffff021916908373ffffffffffffffffffffffffffffffffffffffff1602179055508173ffffffffffffffffffffffffffffffffffffffff168173ffffffffffffffffffffffffffffffffffffffff167f8be0079c531659141344cd1fd0a4f28419497f9722a3daafe3b4186f6b6457e060405160405180910390a35050565b600081519050919050565b7f4e487b7100000000000000000000000000000000000000000000000000000000600052604160045260246000fd5b7f4e487b7100000000000000000000000000000000000000000000000000000000600052602260045260246000fd5b6000600282049050600182168061027c57607f821691505b60208210810361028f5761028e610235565b5b50919050565b60008190508160005260206000209050919050565b60006020601f8301049050919050565b600082821b905092915050565b6000600883026102f77fffffffffffffffffffffffffffffffffffffffffffffffffffffffffffffffff826102ba565b61030186836102ba565b95508019841693508086168417925050509392505050565b6000819050919050565b6000819050919050565b600061034861034361033e84610319565b610323565b610319565b9050919050565b6000819050919050565b6103628361032d565b61037661036e8261034f565b8484546102c7565b825550505050565b600090565b61038b61037e565b610396818484610359565b505050565b5b818110156103ba576103af600082610383565b60018101905061039c565b5050565b601f8211156103ff576103d081610295565b6103d9846102aa565b810160208510156103e8578190505b6103fc6103f4856102aa565b83018261039b565b50505b505050565b600082821c905092915050565b600061042260001984600802610404565b1980831691505092915050565b600061043b8383610411565b9150826002028217905092915050565b610454826101fb565b67ffffffffffffffff81111561046d5761046c610206565b5b6104778254610264565b6104828282856103be565b600060209050601f8311600181146104b557600084156104a3578287015190505b6104ad858261042f565b865550610515565b601f1984166104c386610295565b60005b828110156104eb578489015182556001820191506020850194506020810190506104c6565b868310156105085784890151610504601f891682610411565b8355505b6001600288020188555050505b505050505050565b600073ffffffffffffffffffffffffffffffffffffffff82169050919050565b60006105488261051d565b9050919050565b6105588161053d565b82525050565b6000602082019050610573600083018461054f565b92915050565b611d07806105886000396000f3fe60806040526004361061011f5760003560e01c806370a08231116100a0578063a9059cbb11610064578063a9059cbb146103b8578063dd62ed3e146103f5578063edff835614610432578063f2fde38b1461045d578063f86325ed146104865761011f565b806370a08231146102e3578063715018a6146103205780638da5cb5b1461033757806395d89b41146103625780639d1b464a1461038d5761011f565b80632e1a7d4d116100e75780632e1a7d4d1461021f578063313ce5671461024857806332cb6b0c146102735780633610724e1461029e5780636c11bcd3146102ba5761011f565b806306fdde0314610124578063095ea7b31461014f57806318160ddd1461018c578063211bf799146101b757806323b872dd146101e2575b600080fd5b34801561013057600080fd5b506101396104b1565b604051610146919061153b565b60405180910390f35b34801561015b57600080fd5b50610176600480360381019061017191906115f6565b610543565b6040516101839190611651565b60405180910390f35b34801561019857600080fd5b506101a1610566565b6040516101ae919061167b565b60405180910390f35b3480156101c357600080fd5b506101cc610570565b6040516101d9919061167b565b60405180910390f35b3480156101ee57600080fd5b5061020960048036038101906102049190611696565b610575565b6040516102169190611651565b60405180910390f35b34801561022b57600080fd5b50610246600480360381019061024191906116e9565b6105a4565b005b34801561025457600080fd5b5061025d610640565b60405161026a9190611732565b60405180910390f35b34801561027f57600080fd5b50610288610649565b604051610295919061167b565b60405180910390f35b6102b860048036038101906102b391906116e9565b610659565b005b3480156102c657600080fd5b506102e160048036038101906102dc91906116e9565b610895565b005b3480156102ef57600080fd5b5061030a6004803603810190610305919061174d565b610a5d565b604051610317919061167b565b60405180910390f35b34801561032c57600080fd5b50610335610aa5565b005b34801561034357600080fd5b5061034c610ab9565b6040516103599190611789565b60405180910390f35b34801561036e57600080fd5b50610377610ae3565b604051610384919061153b565b60405180910390f35b34801561039957600080fd5b506103a2610b75565b6040516103af919061167b565b60405180910390f35b3480156103c457600080fd5b506103df60048036038101906103da91906115f6565b610b7b565b6040516103ec9190611651565b60405180910390f35b34801561040157600080fd5b5061041c600480360381019061041791906117a4565b610b9e565b604051610429919061167b565b60405180910390f35b34801561043e57600080fd5b50610447610c25565b604051610454919061167b565b60405180910390f35b34801561046957600080fd5b50610484600480360381019061047f919061174d565b610c2a565b005b34801561049257600080fd5b5061049b610cb0565b6040516104a8919061167b565b60405180910390f35b6060600380546104c090611813565b80601f01602080910402602001604051908101604052809291908181526020018280546104ec90611813565b80156105395780601f1061050e57610100808354040283529160200191610539565b820191906000526020600020905b81548152906001019060200180831161051c57829003601f168201915b5050505050905090565b60008061054e610cbb565b905061055b818585610cc3565b600191505092915050565b6000600254905090565b606581565b600080610580610cbb565b905061058d858285610cd5565b610598858585610d6a565b60019150509392505050565b6105ac610e5e565b804710156105ef576040517f08c379a00000000000000000000000000000000000000000000000000000000081526004016105e690611890565b60405180910390fd5b6105f7610ab9565b73ffffffffffffffffffffffffffffffffffffffff166108fc829081150290604051600060405180830381858888f1935050505015801561063c573d6000803e3d6000fd5b5050565b60006012905090565b6b033b2e3c9fd0803ce800000081565b6000811161069c576040517f08c379a0000000000000000000000000000000000000000000000000000000008152600401610693906118fc565b60405180910390fd5b6b033b2e3c9fd0803ce8000000816106b2610566565b6106bc919061194b565b11156106fd576040517f08c379a00000000000000000000000000000000000000000000000000000000081526004016106f4906119cb565b60405180910390fd5b60003411610740576040517f08c379a000000000000000000000000000000000000000000000000000000000815260040161073790611a37565b60405180910390fd5b600080600654905060005b8381101561078957818361075f919061194b565b925060646065836107709190611a57565b61077a9190611ac8565b9150808060010191505061074b565b50813410156107cd576040517f08c379a00000000000000000000000000000000000000000000000000000000081526004016107c490611b45565b60405180910390fd5b806006819055506107de3384610ee5565b600082346107ec9190611b65565b9050600081111561083f573373ffffffffffffffffffffffffffffffffffffffff166108fc829081150290604051600060405180830381858888f1935050505015801561083d573d6000803e3d6000fd5b505b3373ffffffffffffffffffffffffffffffffffffffff167f8442948036198f1146d3a63c3db355d7e0295c2cc5676c755990445da4fdc1c98585604051610887929190611b99565b60405180910390a250505050565b600081116108d8576040517f08c379a00000000000000000000000000000000000000000000000000000000081526004016108cf906118fc565b60405180910390fd5b806108e233610a5d565b1015610923576040517f08c379a000000000000000000000000000000000000000000000000000000000815260040161091a90611c0e565b60405180910390fd5b600060065490506000805b8381101561096c578282610942919061194b565b915060656064846109539190611a57565b61095d9190611ac8565b9250808060010191505061092e565b50804710156109b0576040517f08c379a00000000000000000000000000000000000000000000000000000000081526004016109a790611c7a565b60405180910390fd5b6109ba3384610f67565b816006819055503373ffffffffffffffffffffffffffffffffffffffff166108fc829081150290604051600060405180830381858888f19350505050158015610a07573d6000803e3d6000fd5b503373ffffffffffffffffffffffffffffffffffffffff167f2dcf9433d75db0d8b1c172641f85e319ffe4ad22e108a95d1847ceb906e5195d8483604051610a50929190611b99565b60405180910390a2505050565b60008060008373ffffffffffffffffffffffffffffffffffffffff1673ffffffffffffffffffffffffffffffffffffffff168152602001908152602001600020549050919050565b610aad610e5e565b610ab76000610fe9565b565b6000600560009054906101000a900473ffffffffffffffffffffffffffffffffffffffff16905090565b606060048054610af290611813565b80601f0160208091040260200160405190810160405280929190818152602001828054610b1e90611813565b8015610b6b5780601f10610b4057610100808354040283529160200191610b6b565b820191906000526020600020905b815481529060010190602001808311610b4e57829003601f168201915b5050505050905090565b60065481565b600080610b86610cbb565b9050610b93818585610d6a565b600191505092915050565b6000600160008473ffffffffffffffffffffffffffffffffffffffff1673ffffffffffffffffffffffffffffffffffffffff16815260200190815260200160002060008373ffffffffffffffffffffffffffffffffffffffff1673ffffffffffffffffffffffffffffffffffffffff16815260200190815260200160002054905092915050565b606481565b610c32610e5e565b600073ffffffffffffffffffffffffffffffffffffffff168173ffffffffffffffffffffffffffffffffffffffff1603610ca45760006040517f1e4fbdf7000000000000000000000000000000000000000000000000000000008152600401610c9b9190611789565b60405180910390fd5b610cad81610fe9565b50565b662386f26fc1000081565b600033905090565b610cd083838360016110af565b505050565b6000610ce18484610b9e565b90507fffffffffffffffffffffffffffffffffffffffffffffffffffffffffffffffff811015610d645781811015610d54578281836040517ffb8f41b2000000000000000000000000000000000000000000000000000000008152600401610d4b93929190611c9a565b60405180910390fd5b610d63848484840360006110af565b5b50505050565b600073ffffffffffffffffffffffffffffffffffffffff168373ffffffffffffffffffffffffffffffffffffffff1603610ddc5760006040517f96c6fd1e000000000000000000000000000000000000000000000000000000008152600401610dd39190611789565b60405180910390fd5b600073ffffffffffffffffffffffffffffffffffffffff168273ffffffffffffffffffffffffffffffffffffffff1603610e4e5760006040517fec442f05000000000000000000000000000000000000000000000000000000008152600401610e459190611789565b60405180910390fd5b610e59838383611286565b505050565b610e66610cbb565b73ffffffffffffffffffffffffffffffffffffffff16610e84610ab9565b73ffffffffffffffffffffffffffffffffffffffff1614610ee357610ea7610cbb565b6040517f118cdaa7000000000000000000000000000000000000000000000000000000008152600401610eda9190611789565b60405180910390fd5b565b600073ffffffffffffffffffffffffffffffffffffffff168273ffffffffffffffffffffffffffffffffffffffff1603610f575760006040517fec442f05000000000000000000000000000000000000000000000000000000008152600401610f4e9190611789565b60405180910390fd5b610f6360008383611286565b5050565b600073ffffffffffffffffffffffffffffffffffffffff168273ffffffffffffffffffffffffffffffffffffffff1603610fd95760006040517f96c6fd1e000000000000000000000000000000000000000000000000000000008152600401610fd09190611789565b60405180910390fd5b610fe582600083611286565b5050565b6000600560009054906101000a900473ffffffffffffffffffffffffffffffffffffffff16905081600560006101000a81548173ffffffffffffffffffffffffffffffffffffffff021916908373ffffffffffffffffffffffffffffffffffffffff1602179055508173ffffffffffffffffffffffffffffffffffffffff168173ffffffffffffffffffffffffffffffffffffffff167f8be0079c531659141344cd1fd0a4f28419497f9722a3daafe3b4186f6b6457e060405160405180910390a35050565b600073ffffffffffffffffffffffffffffffffffffffff168473ffffffffffffffffffffffffffffffffffffffff16036111215760006040517fe602df050000000000000000000000000000000000000000000000000000000081526004016111189190611789565b60405180910390fd5b600073ffffffffffffffffffffffffffffffffffffffff168373ffffffffffffffffffffffffffffffffffffffff16036111935760006040517f94280d6200000000000000000000000000000000000000000000000000000000815260040161118a9190611789565b60405180910390fd5b81600160008673ffffffffffffffffffffffffffffffffffffffff1673ffffffffffffffffffffffffffffffffffffffff16815260200190815260200160002060008573ffffffffffffffffffffffffffffffffffffffff1673ffffffffffffffffffffffffffffffffffffffff168152602001908152602001600020819055508015611280578273ffffffffffffffffffffffffffffffffffffffff168473ffffffffffffffffffffffffffffffffffffffff167f8c5be1e5ebec7d5bd14f71427d1e84f3dd0314c0f7b2291e5b200ac8c7c3b92584604051611277919061167b565b60405180910390a35b50505050565b600073ffffffffffffffffffffffffffffffffffffffff168373ffffffffffffffffffffffffffffffffffffffff16036112d85780600260008282546112cc919061194b565b925050819055506113ab565b60008060008573ffffffffffffffffffffffffffffffffffffffff1673ffffffffffffffffffffffffffffffffffffffff16815260200190815260200160002054905081811015611364578381836040517fe450d38c00000000000000000000000000000000000000000000000000000000815260040161135b93929190611c9a565b60405180910390fd5b8181036000808673ffffffffffffffffffffffffffffffffffffffff1673ffffffffffffffffffffffffffffffffffffffff16815260200190815260200160002081905550505b600073ffffffffffffffffffffffffffffffffffffffff168273ffffffffffffffffffffffffffffffffffffffff16036113f45780600260008282540392505081905550611441565b806000808473ffffffffffffffffffffffffffffffffffffffff1673ffffffffffffffffffffffffffffffffffffffff168152602001908152602001600020600082825401925050819055505b8173ffffffffffffffffffffffffffffffffffffffff168373ffffffffffffffffffffffffffffffffffffffff167fddf252ad1be2c89b69c2b068fc378daa952ba7f163c4a11628f55a4df523b3ef8360405161149e919061167b565b60405180910390a3505050565b600081519050919050565b600082825260208201905092915050565b60005b838110156114e55780820151818401526020810190506114ca565b60008484015250505050565b6000601f19601f8301169050919050565b600061150d826114ab565b61151781856114b6565b93506115278185602086016114c7565b611530816114f1565b840191505092915050565b600060208201905081810360008301526115558184611502565b905092915050565b600080fd5b600073ffffffffffffffffffffffffffffffffffffffff82169050919050565b600061158d82611562565b9050919050565b61159d81611582565b81146115a857600080fd5b50565b6000813590506115ba81611594565b92915050565b6000819050919050565b6115d3816115c0565b81146115de57600080fd5b50565b6000813590506115f0816115ca565b92915050565b6000806040838503121561160d5761160c61155d565b5b600061161b858286016115ab565b925050602061162c858286016115e1565b9150509250929050565b60008115159050919050565b61164b81611636565b82525050565b60006020820190506116666000830184611642565b92915050565b611675816115c0565b82525050565b6000602082019050611690600083018461166c565b92915050565b6000806000606084860312156116af576116ae61155d565b5b60006116bd868287016115ab565b93505060206116ce868287016115ab565b92505060406116df868287016115e1565b9150509250925092565b6000602082840312156116ff576116fe61155d565b5b600061170d848285016115e1565b91505092915050565b600060ff82169050919050565b61172c81611716565b82525050565b60006020820190506117476000830184611723565b92915050565b6000602082840312156117635761176261155d565b5b6000611771848285016115ab565b91505092915050565b61178381611582565b82525050565b600060208201905061179e600083018461177a565b92915050565b600080604083850312156117bb576117ba61155d565b5b60006117c9858286016115ab565b92505060206117da858286016115ab565b9150509250929050565b7f4e487b7100000000000000000000000000000000000000000000000000000000600052602260045260246000fd5b6000600282049050600182168061182b57607f821691505b60208210810361183e5761183d6117e4565b5b50919050565b7f4e6f7420656e6f75676820455448000000000000000000000000000000000000600082015250565b600061187a600e836114b6565b915061188582611844565b602082019050919050565b600060208201905081810360008301526118a98161186d565b9050919050565b7f416d6f756e74206d7573742062652067726561746572207468616e2030000000600082015250565b60006118e6601d836114b6565b91506118f1826118b0565b602082019050919050565b60006020820190508181036000830152611915816118d9565b9050919050565b7f4e487b7100000000000000000000000000000000000000000000000000000000600052601160045260246000fd5b6000611956826115c0565b9150611961836115c0565b92508282019050808211156119795761197861191c565b5b92915050565b7f4d617820737570706c7920657863656564656400000000000000000000000000600082015250565b60006119b56013836114b6565b91506119c08261197f565b602082019050919050565b600060208201905081810360008301526119e4816119a8565b9050919050565b7f4554482073656e74206d7573742062652067726561746572207468616e203000600082015250565b6000611a21601f836114b6565b9150611a2c826119eb565b602082019050919050565b60006020820190508181036000830152611a5081611a14565b9050919050565b6000611a62826115c0565b9150611a6d836115c0565b9250828202611a7b816115c0565b91508282048414831517611a9257611a9161191c565b5b5092915050565b7f4e487b7100000000000000000000000000000000000000000000000000000000600052601260045260246000fd5b6000611ad3826115c0565b9150611ade836115c0565b925082611aee57611aed611a99565b5b828204905092915050565b7f496e73756666696369656e74204554482073656e740000000000000000000000600082015250565b6000611b2f6015836114b6565b9150611b3a82611af9565b602082019050919050565b60006020820190508181036000830152611b5e81611b22565b9050919050565b6000611b70826115c0565b9150611b7b836115c0565b9250828203905081811115611b9357611b9261191c565b5b92915050565b6000604082019050611bae600083018561166c565b611bbb602083018461166c565b9392505050565b7f4e6f7420656e6f75676820746f6b656e7320746f2073656c6c00000000000000600082015250565b6000611bf86019836114b6565b9150611c0382611bc2565b602082019050919050565b60006020820190508181036000830152611c2781611beb565b9050919050565b7f4e6f7420656e6f7567682045544820696e20636f6e7472616374000000000000600082015250565b6000611c64601a836114b6565b9150611c6f82611c2e565b602082019050919050565b60006020820190508181036000830152611c9381611c57565b9050919050565b6000606082019050611caf600083018661177a565b611cbc602083018561166c565b611cc9604083018461166c565b94935050505056fea2646970667358221220045da28c44b0a2bec582a475bbb14401305bf3f82f0c53f8dcdc056a1dc511ce64736f6c634300081c0033",
  "linkReferences": {},
  "deployedLinkReferences": {}
}